:020000040000FA
:060000009AEF17F0120058
:061000009AEF17F0120048
:06100800DBEF14F0120002
:021018001200C4
:06102A0001006E2F000022
:0810300060000000390000001F
:08103800D9CFE6FFE1CFD9FF9B
:10104000D08EF28EFD0EDBCF08F0FE0EDBCF09F066
:10105000200E081802E19D0E091847E0400E0818FE
:1010600002E19D0E09183FE0100E081802E1F00E93
:10107000091836E0080E081802E1F00E09182DE0F4
:10108000100E081802E1F20E091824E0020E0818EA
:1010900002E1A00E09181BE0020E081802E19D0EE5
:1010A000091812E0010E081802E19D0E091809E066
:1010B000200E08181CE1F20E091819E1F28AD58EEB
:1010C00016D09D80CD8013D09D82CA8410D0A0827E
:1010D000B1800DD0F288F19C0AD0F086F19A07D049
:1010E000F088F19804D09D8C02D09D8A9F8AE552A9
:1010F000E7CFD9FF120062C092FF120062C093FFD7
:10110000120062C094FF12009268120093681200ED
:1011100094681200D180120004001200D9CFE6FFBB
:10112000E1CFD9FFFD0EDBCF08F0FE0EDBCF09F0DB
:10113000820E081802E10F0E091801E1C3D0170E44
:10114000081802E17C0E091801E1B9D0160E081842
:1011500002E17C0E091801E1AFD0120E081802E17D
:101160007C0E091801E1A5D0110E081802E17C0ED1
:10117000091801E19BD0100E081802E17C0E091835
:1011800001E191D0810E081802E10F0E091801E16A
:1011900087D00F0E081802E17C0E091801E17DD0FE
:1011A0000E0E081802E17C0E091874E00D0E0818E6
:1011B00002E17C0E09186BE00C0E081802E17C0EAF
:1011C000091862E00B0E081802E17C0E091859E0BC
:1011D0000A0E081802E17C0E091850E0090E0818E2
:1011E00002E17C0E091847E0080E081802E17C0EA7
:1011F00009183EE0800E081802E10F0E091835E0CC
:10120000050E081802E17C0E09182CE0040E0818DF
:1012100002E17C0E091823E0030E081802E17C0E9F
:1012200009181AE0020E081802E17C0E091811E0F4
:10123000010E081802E17C0E091808E0085044E18C
:101240007C0E091841E1929080803ED0929280827B
:101250003BD09294808438D09296808635D09298F4
:10126000808832D0929A808A2FD0926A89682CD056
:101270009390818029D09392818226D09394818407
:1012800023D09396818620D0939881881DD0939AFD
:10129000818A1AD0939C818C17D0939E818E14D012
:1012A000936A8A6811D0949082800ED09492828240
:1012B0000BD09494828408D0949C828C05D0949E08
:1012C000828E02D0946A8B68E552E7CFD9FF120074
:1012D000D9CFE6FFE1CFD9FFFD0EDBCF08F0FE0E40
:1012E000DBCF09F0820E081802E10F0E091801E1A8
:1012F000C3D0170E081802E17C0E091801E1B9D01D
:10130000160E081802E17C0E091801E1AFD0120E8A
:10131000081802E17C0E091801E1A5D0110E081889
:1013200002E17C0E091801E19BD0100E081802E1C1
:101330007C0E091801E191D0810E081802E10F0E10
:10134000091801E187D00F0E081802E17C0E091878
:1013500001E17DD00E0E081802E17C0E091874E040
:101360000D0E081802E17C0E09186BE00C0E08182F
:1013700002E17C0E091862E00B0E081802E17C0EF7
:10138000091859E00A0E081802E17C0E091850E00D
:10139000090E081802E17C0E091847E0080E08182B
:1013A00002E17C0E09183EE0800E081802E10F0EE3
:1013B000091835E0050E081802E17C0E09182CE02A
:1013C000040E081802E17C0E091823E0030E081829
:1013D00002E17C0E09181AE0020E081802E17C0EE8
:1013E000091811E0010E081802E17C0E091808E046
:1013F000085044E17C0E091841E1929080903ED063
:10140000929280923BD09294809438D0929680961B
:1014100035D09298809832D0929A809A2FD0926A42
:10142000896A2CD09390819029D09392819226D072
:101430009394819423D09396819620D09398819809
:101440001DD0939A819A1AD0939C819C17D0939E19
:10145000819E14D0936A8A6A11D0949082900ED0A3
:10146000949282920BD09494829408D0949C829C03
:1014700005D0949E829E02D0946A8B6AE552E7CF93
:10148000D9FF1200D9CFE6FFE1CFD9FFFD0EDBCFA8
:1014900008F0FE0EDBCF09F01F0E081802E17C0EEB
:1014A000091801E1AFD0170E081802E17C0E0918E7
:1014B00001E1A5D0160E081802E17C0E091801E121
:1014C0009BD0120E081802E17C0E091801E191D0A0
:1014D000110E081802E17C0E091801E187D0100EE8
:1014E000081802E17C0E091801E17DD00F0E0818E2
:1014F00002E17C0E091874E00E0E081802E17C0E61
:1015000009186BE00D0E081802E17C0E091862E064
:101510000C0E081802E17C0E091859E00B0E081891
:1015200002E17C0E091850E00A0E081802E17C0E58
:10153000091847E0090E081802E17C0E09183EE080
:10154000080E081802E17C0E091835E0050E08188F
:1015500002E17C0E09182CE0040E081802E17C0E52
:10156000091823E0030E081802E17C0E09181AE09E
:10157000020E081802E17C0E091811E0010E08188D
:1015800002E17C0E091808E008503EE17C0E0918C3
:101590003BE19290807038D09292807235D09294D4
:1015A000807432D0929680762FD0929880782CD00A
:1015B000929A807A29D09390817026D093928172EA
:1015C00023D09394817420D0939681761DD09398E4
:1015D00081781AD0939A817A17D0939C817C14D009
:1015E000939E817E11D0949082700ED094928272DC
:1015F0000BD09494827408D0949C827C05D0949EE5
:10160000827E02D0959E837EE552E7CFD9FF1200FD
:10161000D9CFE6FFE1CFD9FFFD0EDBCF08F0FE0EFC
:10162000DBCF09F0170E081802E17C0E091801E162
:1016300019D1160E081802E17C0E091801E109D132
:10164000120E081802E17C0E091801E1F9D0110E02
:10165000081802E17C0E091801E1E9D0100E081803
:1016600002E17C0E091801E1D9D00F0E081802E141
:101670007C0E091801E1C9D00E0E081802E17C0E9B
:10168000091801E1B9D00D0E081802E17C0E091805
:1016900001E1A9D00C0E081802E17C0E091801E145
:1016A00099D00B0E081802E17C0E091801E189D0CF
:1016B0000A0E081802E17C0E091801E179D0090E22
:1016C000081802E17C0E09186AE0080E081802E109
:1016D0007C0E09185BE0050E081802E17C0E091863
:1016E0004CE0040E081802E17C0E09183DE0030EE0
:1016F000081802E17C0E09182EE0020E081802E11B
:101700007C0E09181FE0010E081802E17C0E091872
:1017100010E0085001E0ADD07C0E091801E0A9D01E
:101720009290FB0EDB50E8B08080E8B0A2D08090B1
:10173000A0D09292FB0EDB50E8B08082E8B099D046
:10174000809297D09294FB0EDB50E8B08084E8B092
:1017500090D080948ED09296FB0EDB50E8B08086BD
:10176000E8B087D0809685D09298FB0EDB50E8B029
:101770008088E8B07ED080987CD0929AFB0EDB50B7
:10178000E8B0808AE8B075D0809A73D09390FB0E51
:10179000DB50E8B08180E8B06CD081906AD0939241
:1017A000FB0EDB50E8B08182E8B063D0819261D05B
:1017B0009394FB0EDB50E8B08184E8B05AD081945A
:1017C00058D09396FB0EDB50E8B08186E8B051D03C
:1017D00081964FD09398FB0EDB50E8B08188E8B03B
:1017E00048D0819846D0939AFB0EDB50E8B0818AAE
:1017F000E8B03FD0819A3DD0939CFB0EDB50E8B01F
:10180000818CE8B036D0819C34D0939EFB0EDB50A7
:10181000E8B0818EE8B02DD0819E2BD09490FB0E45
:10182000DB50E8B08280E8B024D0829022D094923D
:10183000FB0EDB50E8B08282E8B01BD0829219D058
:101840009494FB0EDB50E8B08284E8B012D082940E
:1018500010D0949CFB0EDB50E8B0828CE8B009D02D
:10186000829C07D0949EFB0EDB50E8B0828EE8A0ED
:10187000829EE552E7CFD9FF1200D9CFE6FFE1CF34
:10188000D9FF020EE126DE6ADD6ADECF14F0DDCF7D
:1018900015F00C0E086E096AFD0EDBCF0DF0FE0E82
:1018A000DBCF0EF0C4EC16F006C016F007C017F040
:1018B0001650145C1750155806E20000DF2A010E7E
:1018C00001E3DB2AE2D7020EE15C02E2E16AE552C3
:1018D000E16EE552E7CFD9FF1200D9CFE6FFE1CFA5
:1018E000D9FF020EE126FC0E00016225010FA96E50
:1018F0006251A9240B0BA66EA850FEE1DE6ADD6AD8
:10190000DECF14F0DDCF15F00C0E086E096AFD0E67
:10191000DBCF0DF0FE0EDBCF0EF0C4EC16F006C0F0
:1019200016F007C017F00650145C075015580AE26D
:10193000010EE66E6BEC17F0E552DF2A010EE0E3D4
:10194000DB2ADED7020EE15C02E2E16AE552E16EDB
:10195000E552E7CFD9FF1200D9CFE6FFE1CFD9FF9B
:10196000FE0EDB5000016225C16E070E6225C06EBF
:10197000E552E7CFD9FF1200D9CFE6FFE1CFD9FF7B
:10198000FE0EDB500C0A24E0070A20E0010A1CE0EE
:10199000030A18E0010A14E00C0A10E0070A0CE040
:1019A000010A08E0030A04E0010A14E1010E11D063
:1019B000050E0FD0090E0DD00D0E0BD0110E09D053
:1019C000210E07D0250E05D0290E03D02D0E01D0F3
:1019D000310EC26E0A0EE66EE66A7FDFE552E55210
:1019E000C09EC282C2B2FED7C450156AF36E15C043
:1019F000F4FFE552E7CFD9FF1200D9CFE6FFE1CFE0
:101A0000D9FFFE0EDB500C0A24E0070A20E0010A91
:101A10001CE0030A18E0010A14E00C0A10E0070AAF
:101A20000CE0010A08E0030A04E0010A14E1010ED7
:101A300011D0050E0FD0090E0DD00D0E0BD0110ECA
:101A400009D0210E07D0250E05D0290E03D02D0E6A
:101A500001D0310EC26E0A0EE66EE66A3EDFE55236
:101A6000E552C08EC282C2B2FED7C3CFF3FFC4CF4D
:101A7000F4FFE552E7CFD9FF1200D9CFE6FFE1CF5F
:101A8000D9FFFE0EDB50030A67E0020A42E0010ABA
:101A900001E084D0FC0EDBCF08F0FD0EDBCF09F0B7
:101AA000020E081801E1095031E0040E081801E1A6
:101AB00009502AE0080E081801E1095023E0100E31
:101AC000081801E109501CE0200E081801E1095036
:101AD00015E0400E081801E109500EE0800E0818CC
:101AE00001E1095007E0085059E1010E091856E1DB
:101AF000870E0DD0860E0BD0850E09D0840E07D030
:101B0000830E05D0820E03D0810E01D0800ED56EDB
:101B100045D0FC0EDBCF08F0FD0EDBCF09F0010E47
:101B2000081801E1095015E0020E081801E10950FA
:101B30000EE0040E081801E1095007E0080E08182D
:101B40002DE109502BE1B10E05D0A10E03D0910E6D
:101B500001D0810ECD6E22D0FC0EDBCF08F0FD0E41
:101B6000DBCF09F0010E081801E1095015E0020E63
:101B7000081801E109500EE0040E081801E10950AF
:101B800007E0080E08180AE1095008E1B10E05D077
:101B9000A10E03D0910E01D0810EB16EE552E7CFB8
:101BA000D9FF1200D9CFE6FFE1CFD9FF060EE1261B
:101BB000176A186A010E196EFC0EDBCF1AF0FD0EC3
:101BC000DBCF1BF01C6A1A50175C146E1B501858A0
:101BD000156E1C501958166E14C0DEFF15C0DDFFBF
:101BE000146A010E156E14C00DF00E6EDECF08F0F3
:101BF000DDCF09F055EC17F0020E08C0DBFF030E35
:101C000009C0DBFFDECF14F0DDCF15F0156A040E3E
:101C100014C0DBFF050E15C0DBFFFE0EDB50030A10
:101C200012E0020A09E0010A14E1020EDB50D76E4D
:101C3000040EDB50D66E0DD0020EDB50CF6E040EBC
:101C4000DB50CE6E06D0020EDB50B36E040EDB50BE
:101C5000B26E060EE15C02E2E16AE552E16EE55227
:101C6000E7CFD9FF1200D9CFE6FFE1CFD9FF020EAF
:101C7000E126D66AC10ED56EDE6ADD6ADECF14F0CB
:101C8000DDCF15F00C0E086E096AFD0EDBCF0DF0EE
:101C9000FE0EDBCF0EF0C4EC16F006C016F007C047
:101CA00017F00650145C075015580BE2060ED624A8
:101CB000D66EF294F2A4FED7DF2A010EDFE3DB2A10
:101CC000DDD7020EE15C02E2E16AE552E16EE55227
:101CD000E7CFD9FF1200D9CFE6FFE1CFD9FFA69E0B
:101CE000A69CA684FE0EDB50A96EFD0EDB50A86EEE
:101CF000550EA76EAA0EA76EA682A6B2FED7E55213
:101D0000E7CFD9FF1200D9CFE6FFE1CFD9FFFE0E12
:101D1000DB50A96EA694A69EA69CA680A850E5526C
:101D2000E7CFD9FF1200FD0EA96E0B0EA914A66E07
:101D3000A850FEE17E0E166E0E6EA9CF09F0A8EC3B
:101D400017F00538F00B146E156A60C008F061C01A
:101D500009F00D6E15C00EF055EC17F008C063F0D9
:101D600008C0E6FFD0DFE5520001626F1200D9CF54
:101D7000E6FFE1CFD9FF040EE126948E949C240E59
:101D8000AC6E900EAB6E080EB86E62C018F0196A99
:101D90001A6A1B6A1C6A1B0E1D6EB70E1E6E1F6A26
:101DA0001CC006F01DC007F0086E1FC009F0FB0E36
:101DB000DBCF0BF0FC0EDBCF0CF0FD0EDBCF0DF01C
:101DC000FE0EDBCF0EF031EC17F018500624146E27
:101DD00019500720156E1A500820166E1B50092046
:101DE000176E1406000E155A165A175A14C0DFFF44
:101DF000010E15C0DBFF020E16C0DBFF030E17C07D
:101E0000DBFFD9CFE9FFDACFEAFFEECF14F0EECF58
:101E100015F0EECF16F0EFCF17F0080ED89017326E
:101E2000163215321432E806F9E11450B06E000E85
:101E3000DB50AF6E040EE15C02E2E16AE552E16E56
:101E4000E552E7CFD9FF1200D9CFE6FFE1CFD9FFA6
:101E5000ACA2FED7FE0EDB5000016225AD6EE5524E
:101E6000E7CFD9FF1200D9CFE6FFE1CFD9FFACA26F
:101E7000FED7FE0EDB5000016225AD6EE552E7CFC6
:101E8000D9FF1200D9CFE6FFE1CFD9FFACA2FED730
:101E9000B850080B01E0010E146EFE0EDB5014C0AA
:101EA000E7FFE75204E0E8427F0BE706FCE10001B0
:101EB0006225AD6EE552E7CFD9FF1200D9CFE6FF1C
:101EC000E1CFD9FFE65299C0F6FF9AC0F7FF0800AC
:101ED000F55010E0000199C0F6FF9AC0F7FF992B6A
:101EE000000E9A230800F550DF6EDFCFE6FFBBDF60
:101EF000E552E9D7E552E552E7CFD9FF1200D9CF35
:101F0000E6FFE1CFD9FFE6529BC0F6FF9CC0F7FF8A
:101F10000800F55010E000019BC0F6FF9CC0F7FFE1
:101F20009B2B000E9C230800F550DF6EDFCFE6FFF1
:101F3000A9DFE552E9D7E552E552E7CFD9FF120014
:101F4000D9CFE6FFE1CFD9FF0001646B6451E76EA2
:101F5000FD0EDBCFE9FFFE0EDBCFEAFFE750E926FF
:101F6000000EEA22EF5013E06451E76EFD0EDBCF66
:101F7000E9FFFE0EDBCFEAFFE750E926000EEA227A
:101F8000EF50E66E70DFE5520001642BDFD7E552BB
:101F9000E7CFD9FF1200D9CFE6FFE1CFD9FF00018B
:101FA000646B6451E76EFD0EDBCFE9FFFE0EDBCF05
:101FB000EAFFE750E926000EEA22EF5013E06451F1
:101FC000E76EFD0EDBCFE9FFFE0EDBCFEAFFE75049
:101FD000E926000EEA22EF50E66E54DFE5520001DA
:101FE000642BDFD7E552E7CFD9FF1200D9CFE6FF48
:101FF000E1CFD9FFE150FD0FE96EFF0EDA20EA6E66
:102000000F0ED880EE54270EED542AE2FD0EDBCFE2
:1020100016F0FE0EDBCF17F0100E0D6E270E0E6EB3
:1020200016C008F017C009F055EC17F008C016F0FC
:1020300009C017F00A0E0D6E0E6A55EC17F004C0B9
:1020400016F005C017F00001625100010424146E5F
:10205000000E0520156E300E1424E66E04DFE552E6
:10206000D950FD0FE96EFF0EDA20EA6EE70ED88038
:10207000EE54030EED5422E2FD0EDBCF14F0FE0E03
:10208000DBCF15F0E80E0D6E030E0E6E14C008F0D7
:1020900015C009F055EC17F008C014F009C015F090
:1020A0000A0E0D6E0E6A55EC17F004C014F005C050
:1020B00015F0300E0424E66ED6DEE552D950FD0F41
:1020C000E96EFF0EDA20EA6E630ED880EE54000E41
:1020D000ED5429E2FD0EDBCF16F0FE0EDBCF17F03C
:1020E000640E0D6E0E6A16C008F017C009F055ECAC
:1020F00017F008C016F009C017F00A0E0D6E0E6A30
:1021000055EC17F004C016F005C017F0000162513D
:1021100000010424146E000E0520156E300E1424E8
:10212000E66EA1DEE552D950FD0FE96EFF0EDA2012
:10213000EA6E090ED880EE54000EED5429E2FD0E31
:10214000DBCF16F0FE0EDBCF17F00A0E0D6E0E6A17
:1021500016C008F017C009F055EC17F008C016F0CB
:1021600009C017F00A0E0D6E0E6A55EC17F004C088
:1021700016F005C017F00001625100010424146E2E
:10218000000E0520156E300E1424E66E6CDEE5524E
:10219000FD0EDBCF16F0FE0EDBCF17F00A0E0D6E34
:1021A0000E6A16C008F017C009F055EC17F004C00D
:1021B00016F005C017F00001625100010424146EEE
:1021C000000E0520156E300E1424E66E4CDEE5522E
:1021D000E552E7CFD9FF1200D9CFE6FFE1CFD9FF13
:1021E000020EE1260C0E00016225BD12070E6225CB
:1021F000CA6EFD0EA96EA680A850FEE1FD0E00017C
:102200006225E824941662C018F0196A1A6A1B6ADB
:10221000100E086E096AFD0EDBCF0DF0FE0EDBCF4F
:102220000EF097EC16F006C020F007C021F0226AED
:10223000236A21AE02D0226823681C6A1B0E1D6E21
:10224000B70E1E6E1F6A1CC006F01DC007F0086E98
:102250001FC009F020C00BF021C00CF022C00DF00F
:1022600023C00EF063EC16F018500624146E1950BB
:102270000720156E1A5008201B5009201406000E66
:10228000155A1450CB6ECB28166E176A086E17C0FD
:1022900009F0FB0EDBCF0DF0FC0EDBCF0EF097EC60
:1022A00016F006C014F007C015F0190E0D6E0E6A78
:1022B00006C008F007C009F03DEC16F008C0DEFFCC
:1022C00009C0DDFF00016251166E176ADE50162448
:1022D000146EDD501720156ED89015321432D89038
:1022E000153214321450BE6EDECF16F0DDCF17F06B
:1022F000030E1616000E1716625100011624146EF6
:10230000000E1720040ED8901436E804FCE1145097
:10231000BD12020EE15C02E2E16AE552E16EE552B5
:10232000E7CFD9FF1200D9CFE6FFE1CFD9FF020EE8
:10233000E1260C0E00016225BA12070E6225CA6E54
:10234000FD0EA96EA680A850FEE1FE0E00016225DA
:10235000E824941662C018F0196A1A6A1B6A100EF3
:10236000086E096AFD0EDBCF0DF0FE0EDBCF0EF01E
:1023700097EC16F006C020F007C021F0226A236A0D
:1023800021AE02D0226823681C6A1B0E1D6EB70E98
:102390001E6E1F6A1CC006F01DC007F0086E1FC02D
:1023A00009F020C00BF021C00CF022C00DF023C0BA
:1023B0000EF063EC16F018500624146E1950072026
:1023C000156E1A5008201B5009201406000E155ACD
:1023D0001450CB6ECB28166E176A086E17C009F022
:1023E000FB0EDBCF0DF0FC0EDBCF0EF097EC16F002
:1023F00006C014F007C015F0190E0D6E0E6A06C067
:1024000008F007C009F03DEC16F008C0DEFF09C077
:10241000DDFF00016251166E176ADE501624146E3D
:10242000DD501720156ED89015321432D890153221
:1024300014321450BB6EDECF14F0DDCF15F0030E56
:102440001416000E1516040ED8901436E804FCE19C
:102450001450BA12020EE15C02E2E16AE552E16E4A
:10246000E552E7CFD9FF1200000000000000000095
:10247000000000000000000000000000000000005C
:10248000000000000000000000000000000000004C
:10249000000000000000000000000000000000003C
:1024A000000000000000000000000000000000002C
:1024B000000000000000000000000000000000001C
:1024C00000000000000000000000000012001C0ED0
:1024D000E66E6BEC17F0E5521200D9CFE6FFE1CFC4
:1024E000D9FFE652939A93989396939493929390EC
:1024F0008A9A8A988A968A948A928A90FD0EA96E00
:10250000A694A69EA69CA680A850FEE1A850000115
:102510006527A950A95EA694A69EA69CA680655193
:10252000A824FE0BE842656FD2DFD1DFD0DFCFDF1A
:10253000CEDFCDDF010EDF6E040EDF5C16E28A9A7D
:102540008A988A868A848A928A908A9A8A988A86BF
:102550008A848A828A9088DF8A9A8A988A868A847C
:102560008A928A90B4DFDF2AE7D78A9A8A988A8685
:102570008A948A928A908A9A8A988A868A948A8287
:102580008A9072DF8A9A8A988A868A948A928A9036
:102590009EDF280EDF6EDFCFE6FF4BD9E552100E2F
:1025A000DF6EDFCFE6FF45D9E552010EDF6EDFCFEC
:1025B000E6FF3FD9E5520F0EDF6EDFCFE6FF39D9D8
:1025C000E552E552E552E7CFD9FF1200D9CFE6FF39
:1025D000E1CFD9FFE652FE0EDB50040A14E0070AF1
:1025E0000DE0010A06E0030A14E1FD0EDB507F0F47
:1025F0000FD0FD0EDBCF14F0BF0E09D0FD0EDBCFE8
:1026000014F0930E04D0FD0EDBCF14F0D30E14247F
:10261000DF6EDFCFE6FF0DD9E552FB0EDBCFF6FF15
:10262000FC0EDBCFF7FF0800F55011E0FB0EDBCF0F
:10263000F6FFFC0EDBCFF7FF0800F550E66E81D801
:10264000E552FB0EDB2AFC0EE8E3DB2AE6D7E55277
:10265000E552E7CFD9FF1200D9CFE6FFE1CFD9FF8E
:10266000E652FE0EDB50040A14E0070A0DE0010AF0
:1026700006E0030A14E1FD0EDB507F0F0FD0FD0EC4
:10268000DBCF14F0BF0E09D0FD0EDBCF14F0930E9C
:1026900004D0FD0EDBCF14F0D30E1424DF6EDFCF99
:1026A000E6FFC7D8E552FB0EDBCFE9FFFC0EDBCF20
:1026B000EAFFEF5010E0FB0EDBCFE9FFFC0EDBCFB3
:1026C000EAFFEF50E66E3DD8E552FB0EDB2AFC0E2A
:1026D000EAE3DB2AE8D7E552E552E7CFD9FF12005B
:1026E000D9CFE6FFE1CFD9FFE652FE0EDB50040A58
:1026F00014E0070A0DE0010A06E0030A14E1FD0EEA
:10270000DB507F0F0FD0FD0EDBCF14F0BF0E09D0D2
:10271000FD0EDBCF14F0930E04D0FD0EDBCF14F0D2
:10272000D30E1424DF6EDFCFE6FF83D8E552FC0E14
:10273000DBCFE6FF06D8E552E552E552E7CFD9FFF9
:102740001200D9CFE6FFE1CFD9FF8A928A80FE0E30
:10275000DB50800BE844010BE8B08A8AE8A08A9A33
:10276000060E146EFE0EDB50400B14C0E7FFE7525E
:1027700004E0E8427F0BE706FCE1E8B08A88E8A0C5
:102780008A98FE0EDB50200BE00BE838E840E8B0FA
:102790008A86E8A08A96FE0EDB50100BE8380F0BF5
:1027A000E8B08A84E8A08A940000000000000000DD
:1027B0000000000000000000000000008A8254DEDB
:1027C0008A92FE0EDB50080BE840E840E8401F0B01
:1027D000E8B08A8AE8A08A9AFE0EDB50040BE84033
:1027E000E8403F0BE8B08A88E8A08A98FE0EDB50EC
:1027F000020BE8407F0BE8B08A86E8A08A96FE0EBE
:10280000DB50010BE8B08A84E8A08A940000000045
:1028100000000000000000000000000000000000B8
:102820008A8222DE8A9220DE52DEE552E7CFD9FF8D
:102830001200D9CFE6FFE1CFD9FF8A928A90FE0E2F
:10284000DB50800BE844010BE8B08A8AE8A08A9A42
:10285000060E146EFE0EDB50400B14C0E7FFE7526D
:1028600004E0E8427F0BE706FCE1E8B08A88E8A0D4
:102870008A98FE0EDB50200BE00BE838E840E8B009
:102880008A86E8A08A96FE0EDB50100BE8380F0B04
:10289000E8B08A84E8A08A940000000000000000EC
:1028A0000000000000000000000000008A82DCDD63
:1028B0008A92FE0EDB50080BE840E840E8401F0B10
:1028C000E8B08A8AE8A08A9AFE0EDB50040BE84042
:1028D000E8403F0BE8B08A88E8A08A98FE0EDB50FB
:1028E000020BE8407F0BE8B08A86E8A08A96FE0ECD
:1028F000DB50010BE8B08A84E8A08A940000000055
:1029000000000000000000000000000000000000C7
:102910008A82AADD8A92DBDDE552E7CFD9FF120079
:10292000D9CFE6FFE1CFD9FF020EE12600016529EC
:10293000E8380F0BE76E010EE7CFDBFFDB50F36EDD
:10294000FE0EDBCFF4FFF350F45C2BE2010EDBCF85
:10295000E6FFFE0EDB50E552E702F3CF14F0010E66
:10296000DBCFE6FFDB50E552E702F3501424E66EBE
:1029700060DFE552DF6A010EDB50DF5C12E2DF5000
:10298000E76EFC0EDBCFE9FFFD0EDBCFEAFFE75081
:10299000E926000EEA22EF50E66ED3DEE552DF2A8A
:1029A000EAD7020EE15C02E2E16AE552E16EE5522D
:1029B000E7CFD9FF1200DACFE4FFE652E552E5CFC8
:1029C000DAFF110093EC0EF00E0EE66EACEC0CF09C
:1029D000E55283DD0C0EE66E2CDFE552640EE66EEA
:1029E000E66A6DEC0CF0E552E5526A0EE66E000EFA
:1029F000E66E010EE66E94DFE552E552E552640E96
:102A0000E66EE66A6DEC0CF0E552E552720EE66E8B
:102A1000000EE66E020EE66E83DFE552E552E552E9
:102A2000640EE66EE66A6DEC0CF0E552E5527A0E45
:102A3000E66E000EE66E030EE66E72DFE552E552BC
:102A4000E552640EE66EE66A6DEC0CF0E552E55276
:102A5000820EE66E000EE66E040EE66E61DFE55253
:102A6000E552E552640EE66EE66A6DEC0CF0E55256
:102A7000E5528A0EE66E000EE66E050EE66E50DF3B
:102A8000E552E552E552640EE66EE66A6DEC0CF036
:102A9000E552E552920EE66E000EE66E060EE66E0A
:102AA0003FDFE552E552E552640EE66EE66A6DECF4
:102AB0000CF0E552E552240EE66E2F0EE66E010E86
:102AC000E66EE66E83DDE552E552E552E552F40E20
:102AD000E66E010EE66E6DEC0CF0E552E552160E58
:102AE000E66E2F0EE66E010EE66E020EE66E6EDDEF
:102AF000E552E552E552E552F40EE66E010EE66E41
:102B00006DEC0CF0E552E552060EE66E0E0EE66E2A
:102B1000020EE66EE5DDE552E552E552F40EE66E94
:102B2000010EE66E6DEC0CF0E552E552010E00016F
:102B3000686F696B100E685D000E695949E2020EFC
:102B4000E66E68C0E6FF010EE66ECADDE552E552AC
:102B5000E5522C0EE66E010EE66E6DEC0CF0E552C1
:102B6000E552010EE66E68C0E6FFE66EB9DDE5529D
:102B7000E552E5522C0EE66E010EE66E6DEC0CF0A1
:102B8000E552E552050EE66E68C0E6FF010EE66E00
:102B9000A7DDE552E552E552640EE66EE66A6DEC9D
:102BA0000CF0E552E5520F0EE66E7C0EE66E42EC3E
:102BB0000AF0E552E5521F0EE66E7C0EE66E42EC20
:102BC0000AF0E552E5520001682B000E6923B2D7E6
:102BD000100E686F696B696B000ED8806855000E27
:102BE000695501E368D7040EE66E68C0E6FF020E81
:102BF000E66E76DDE552E552E5522C0EE66E010EEC
:102C0000E66E6DEC0CF0E552E552030EE66E68C020
:102C1000E6FF020EE66E64DDE552E552E5522C0E4B
:102C2000E66E010EE66E6DEC0CF0E552E552050E17
:102C3000E66E68C0E6FF020EE66E52DDE552E55232
:102C4000E552640EE66EE66A6DEC0CF0E552E55274
:102C50000F0EE66E7C0EE66E42EC0AF0E552E5528F
:102C60001F0EE66E7C0EE66E42EC0AF0E552E5526F
:0A2C700000016807000E695BAFD792
:062C7A00006A0EAE46EFF9
:102C800016F00D6C0E1EE86A0E22001E09AE4EEF05
:102C900016F0086C091EE86A0922001E55EC17F0B0
:102CA00009BE5EEF16F000AE000C086C091EE86A63
:102CB0000922046C051EE86A0522000C00BE55EFCF
:102CC00016F00188FF0C006AE86A0EAE70EF16F08D
:102CD0000B6C0C1E0D1E0E1E0C220D220E22001E51
:102CE00009AE7BEF16F0066C071E081E091E0722B0
:102CF00008220922001E31EC17F009BE92EF16F0EF
:102D000000AE000C066C071E081E091EE86A0722AA
:102D100008220922026C031E041E051E032204223F
:102D20000522000C00BE82EF16F00188FF0C09C0DE
:102D300013F008C012F008500D02F4CF07F0F3CFE3
:102D400006F009500E02F4CF09F0F3CF08F00D029F
:102D5000F3500726F4500822E86A092212500E02A6
:102D6000F3500726F4500822E86A09220EAEBDEFA0
:102D700016F01250085E1350095A13AE000C0D5095
:102D8000085E0E50095A000C08C012F008500D02DF
:102D9000F4CF07F0F3CF06F009500E02F4CF09F09C
:102DA000F3CF08F00D02F3500726F4500822E86A2A
:102DB000092212500E02F3500726F4500822E86A46
:042DC0000922000CD8
:0C2DC4002A0EF66E100EF76E000EF86E70
:102DD00000010900F550B66F0900F550B76F03E127
:102DE000B66701D03DD00900F550B16F0900F5502C
:102DF000B26F0900F550B36F09000900F550E96E94
:102E00000900F550EA6E090009000900F550B46F99
:102E10000900F550B56F09000900F6CFB8F0F7CFFB
:102E2000B9F0F8CFBAF0B1C0F6FFB2C0F7FFB3C047
:102E3000F8FF0001B45302E1B55307E00900F55073
:102E4000EE6EB407F8E2B507F9D7B8C0F6FFB9C01F
:102E5000F7FFBAC0F8FF0001B607000EB75BBFD797
:022E600012005E
:0E2E6200056A046A036A026A200EE76ED890C1
:102E70000636073608360936023603360436053676
:102E80000B50025C0C5003580D5004580E5005585E
:102E900009E30B50025E0C50035A0D50045A0E50B9
:0A2EA000055A062AE72EE4D71200B7
:062EAA00056A046A100E27
:102EB000E76ED89008360936043605360D50045CA6
:102EC0000E50055805E30D50045E0E50055A082AB1
:062ED000E72EF0D712000E
:0A2ED600FF0EE350246E480E01D0F9
:102EE0004C0EE76EE72EFED7E76AE72EFED7242EBC
:062EF000F7D700001200FC
:0A2EF600000EF36E00EE00F0080E6F
:102F000001D81200EA6002D0EE6AFCD7F350E96003
:062F10001200EE6AFCD77E
:0A2F16004C65642070726120766F34
:102F20006365200053616E5553422070697363617D
:032F3000206F000F
:0C2F340013EE00F023EE00F0F86A019CA0
:102F4000E2EC16F0B6EC17F0E2EC14F0FBD712004E
:102F5000056A080EE76ED890093605360E50055CF6
:0C2F600002E3056E092AE72EF7D71200E5
:022F6C00120051
:022F6E00DF0F73
:102F70000FDF0000000001000E1C1810181C0E00CE
:102F8000001E1F101F1E00000E07030103070E0086
:102F9000000F1F011F0F00000000000000000000D4
:072FA00004150E040A0A0AE1
:00000001FF
