:041000000CEF08F0F9
:10100800FACF2EF0FBCF2FF0E9CF30F067ED3BF0B1
:1010180076EF3AF00053616E55534220706973635E
:1010280061206F004C65642070726120766F636583
:041038002000000094
:107444001C0E26EC3AF01200E8CF3CF0FA0E00F0E5
:10745400E82EFDD73C2EFAD71200E8CF3CF00550B9
:107464003C24C16E0550070FC06E1200E8CF3CF0FB
:107474003CC0A9FFA694A69EA69CA680A850120074
:10748500DF0F01000FDF0E1C1810181C0E000E0771
:10749500030103070E00001E1F101F1E0000000F32
:1074A5001F011F0F000004150E040A0A0A3C503E76
:1074B50002F3CF40F0F4CF41F03C503F02F3CFF45C
:1074C500FFF36AF3504026F45041223D503E02F34B
:1074D500CFF4FFF36AF3504026F450412240C03CFC
:1074E500F041C03DF0120000EE60F0140EEE6AE8C7
:1074F50006FDE100EE4DF00C0EEE6AE806FDE185B5
:107505000EF66E740EF76E000EF86E00EE01F010BA
:10751500EE2DF00900F5CFEEFFE550E150FAE10060
:107525000EF86E0001E0EF3EF0E8CF42F00DD040DE
:10753500507F0F08D04050BF0F05D04050930F0229
:10754500D04050D30F436E0DD04250010AD8B4EF4E
:10755500D7030AD8B4EFD7010AD8B4EFD7070AD8AA
:10756500B4EFD74350B6EC3DF041504AEC3EF01233
:10757500000550FD0FA96E0550A9240B0BA66EA89A
:1075850066FED7000E456E000E446E05D0010E2630
:10759500EC3AF0444A452A42C03CF043C03DF00075
:1075A5000E3F6E0C0E3E6E59EC3AF03C50445C3D7D
:1075B500504558D8B01200EAD7FD0EA96EA9500B58
:1075C5000BA66EA866FED701C043F002C044F000CA
:1075D5000E3F6E7E0E3E6EA9CF3CF03D6A06EC3C3A
:1075E500F03C3A3D3AF00E3D163C500F0B3D12F083
:1075F5000E3C163CC045F03DC046F009EC3BF0435F
:1076050050066E065038EC3AF0056E1200000E4931
:107615006E000E486E46504510D8B41ED0476E0118
:107625000E4A6E475004D0D890453646364A2A460B
:10763500AEFAD7D890483649364550435C46504453
:1076450058D8A005D04550435E4650445A4880D886
:1076550090463245324A2EEDD748C043F049C044E2
:10766500F0120000F000F000F000F000F000F00073
:10767500F000F000F000F000F000F000F000F00085
:10768500F000F000F000F000F000F000F000F00075
:10769500F000F000F000F000F000F000F000F00065
:1076A500F000F000F000F000F000F000F000F00055
:1076B500F000F000F000F000F000F000F000F00045
:1076C500F000F000F000F012000600EACF31F0E122
:1076D500CF32F0E2CF33F0D9CF34F0DACF35F0F353
:1076E500CF36F0F4CF37F0F6CF38F0F7CF39F0F8E2
:1076F500CF3AF0F5CF3BF03BC0F5FF3AC0F8FF3984
:10770500C0F7FF38C0F6FF37C0F4FF36C0F3FF35CA
:10771500C0DAFF34C0D9FF33C0E2FF32C0E1FF3128
:10772500C0EAFF30C0E9FF2FC0FBFF2EC0FAFF11F2
:1077350000E8CF43F00DD040507F0F08D04050BF38
:107745000F05D04050930F02D04050D30F446E0D1B
:10775500D04350010AD8B4EFD7030AD8B4EFD70104
:107765000AD8B4EFD7070AD8B4EFD74450B6EC3DE2
:10777500F00AD041C0F6FF42C0F7FF0800F5504AB5
:10778500EC3EF0414A422A41C0F6FF42C0F7FF08ED
:1077950000F5500009D8B41200ECD7E8CF45F050F9
:1077A50050426E436A010E4226000E4322040E44E7
:1077B5006E433443324232442EFBD74250476E4724
:1077C50050455CD8B01FD045504702F3CF42F04733
:1077D500504702F3504224B6EC3DF0426E000E468F
:1077E5006E42500CD04650010DF3504024D96EF432
:1077F500504120DA6EDF504AEC3EF0462A475046AB
:107805005CD8A0F0D71200406E000E426E40503D8D
:1078150050800AF36E800EF35C000ED8B43C5CD841
:10782500B008D03C6C3D1ED8B03D2A406E010E42DA
:107835006E40503F50800AF36E800EF35C000ED808
:10784500B43E5CD8B004D03E6C3F1ED8B03F2A3F52
:10785500503E10D8B41AD0406E010E416E4050040F
:10786500D0D8903E363F36412A3FAEFAD73E503CFF
:107875005C3F503D58D8A004D03E503C5E3F503D43
:107885005AD8903F323E32412EF1D74250D8B404F7
:10789500D03C6C3D1ED8B03D2A3CC03CF03DC03DBF
:1078A500F01200406E000E426E40503F50800AF3C9
:1078B5006E800EF35C000ED8B43E5CD8B008D03EA6
:1078C5006C3F1ED8B03F2A406E010E426E40503DBF
:1078D50050800AF36E800EF35C000ED8B43C5CD881
:1078E500B006D03C6C3D1ED8B03D2A010E421A00B0
:1078F5000E446E000E436E3F503E10D8B41ED0406D
:107905006E010E416E405004D0D8903E363F364150
:107915002A3FAEFAD7D890433644363E503C5C3FBA
:10792500503D58D8A005D03E503C5E3F503D5A438F
:1079350080D8903F323E32412EEDD74250D8B40424
:10794500D0436C441ED8B0442A43C03CF044C03DEB
:10795500F012003CD0929080707ED0929280727B23
:10796500D09294807478D09296807675D0929880D3
:107975007872D0929A807A6FD0939081706CD09300
:1079850092817269D09394817466D093968176635F
:10799500D09398817860D0939A817A5DD0939C81B9
:1079A5007C5AD0939E817E57D09490827054D09407
:1079B50092827251D0949482744ED0949C827C4B66
:1079C500D0949E827E48D0959E837E45D03CC03E15
:1079D500F03DC03FF03F507C0AD8A43DD03E50005A
:1079E5000AD8B4B8D7010AD8B4B8D7030AD8B4B8F6
:1079F500D7010AD8B4B8D7070AD8B4B8D7010AD876
:107A0500B4B8D70D0AD8B4B8D7010AD8B4B8D703D3
:107A15000AD8B4B8D7010AD8B4B8D7070AD8B4B8C1
:107A2500D7010AD8B4B8D7030AD8B4B8D7010AD849
:107A3500B4B8D71F0AD8B4B8D7010AD8B4B8D70391
:107A45000AD8B4B8D7040AD8B4B8D7010AD8B4B894
:107A5500D7080AD8B4B8D712009396939493929303
:107A6500909398939A8A968A948A928A908A988A09
:107A75009AFD0EA96EA694A69EA69CA680A866FE53
:107A8500D7A8505026A950A95EA694A69EA69CA646
:107A9500805050A8243C6E3D6A3D36000E3F6E0274
:107AA5000E3E6E54EC3CF03C50506E22EC3AF02207
:107AB500EC3AF022EC3AF022EC3AF022EC3AF022E1
:107AC500EC3AF0456E010E466E455017D08A968AFF
:107AD500948A828A808A988A9A8A968A948A828ADD
:107AE500808A888A9A34EC3BF08A968A948A828ABC
:107AF500808A988A9A22EC3AF0462A030E4664E672
:107B0500D78A968A948A828A908A988A9A8A968A45
:107B1500948A828A908A888A9A34EC3BF08A968A7B
:107B2500948A828A908A988A9A22EC3AF0456E283D
:107B35000E466E45504650B6EC3DF0456E100E466D
:107B45006E45504650B6EC3DF0456E010E466E450D
:107B5500504650B6EC3DF0456E0F0E466E4550460C
:107B650050B6EC3DF01200E8CF3FF08A988A9A3D76
:107B75006A3FAE01D03D2A010E3D163D463D463DCC
:107B8500468A503D18F70B3D188A6E3FC03DF006FA
:107B95000E3E6ED8903D323E2EFCD7010E3D163D71
:107BA500463D468A503D18FB0B3D188A6E3FC03D49
:107BB500F0050E3E6ED8903D323E2EFCD7010E3DAF
:107BC500163D468A503D18FD0B3D188A6E3FC03D57
:107BD500F03D3A0F0E3D16010E3D168A503D18FE3A
:107BE5000B3D188A6E00F000F000F000F000F00088
:107BF500F000F000F000F000F08A8834EC3BF08AE9
:107C0500983FC03DF0D8903D32D8903D32D8903D58
:107C150032010E3D163D463D463D468A503D18F71C
:107C25000B3D188A6E3FC03DF0D8903D32D8903D4F
:107C350032010E3D163D463D468A503D18FB0B3D33
:107C4500188A6E3FC03DF0D8903D32010E3D163D7D
:107C5500468A503D18FD0B3D188A6E3FC03DF00128
:107C65000E3D168A503D18FE0B3D188A6E00F00039
:107C7500F000F000F000F000F000F000F000F0007F
:107C8500F08A8834EC3BF08A9822EC3AF01200E84E
:107C9500CF3FF08A988A8A3D6A3FAE01D03D2A01DE
:107CA5000E3D163D463D463D468A503D18F70B3D77
:107CB500188A6E3FC03DF0060E3E6ED8903D323EAE
:107CC5002EFCD7010E3D163D463D468A503D18FB1C
:107CD5000B3D188A6E3FC03DF0050E3E6ED8903DB7
:107CE500323E2EFCD7010E3D163D468A503D18FD0D
:107CF5000B3D188A6E3FC03DF03D3A0F0E3D160113
:107D05000E3D168A503D18FE0B3D188A6E00F00098
:107D1500F000F000F000F000F000F000F000F000DE
:107D2500F08A8834EC3BF08A983FC03DF0D8903D0E
:107D350032D8903D32D8903D32010E3D163D463D3C
:107D4500463D468A503D18F70B3D188A6E3FC03DAB
:107D5500F0D8903D32D8903D32010E3D163D463D5E
:107D6500468A503D18FB0B3D188A6E3FC03DF0D842
:107D7500903D32010E3D163D468A503D18FD0B3DA6
:107D8500188A6E3FC03DF0010E3D168A503D18FE23
:107D95000B3D188A6E00F000F000F000F000F000D6
:107DA500F000F000F000F000F08A8834EC3BF08A37
:107DB5009834EC3BF022EC3AF01200DFEC3AF00E8E
:107DC5000E2FEC3AF02FEC3DF00C0EB6EC3DF0002A
:107DD5000E436E640E426EBBEC3AF0000E416E0728
:107DE5000E406E010ED0EC3BF0000E436E640E4269
:107DF5006EBBEC3AF0000E416E170E406E020ED0CF
:107E0500EC3BF0000E436E640E426EBBEC3AF000A4
:107E15000E416E0F0E406E030ED0EC3BF0000E438C
:107E25006E640E426EBBEC3AF0000E416E1F0E40C2
:107E35006E040ED0EC3BF0000E436E640E426EBB3A
:107E4500EC3AF0000E416E510E406E050ED0EC3B43
:107E5500F0000E436E640E426EBBEC3AF0000E412C
:107E65006E270E406E060ED0EC3BF0000E436E649E
:107E75000E426EBBEC3AF04B6E010E406E4B50104D
:107E85000E426E1D0E416E010E9BEC3BF0010E4342
:107E95006EF40E426EBBEC3AF04B6E010E406E4B2B
:107EA50050100E426E2C0E416E020E9BEC3BF00103
:107EB5000E436EF40E426EBBEC3AF04B6E0E0E4066
:107EC5006E4B504C6E060E416E4C50020E97EC3ABE
:107ED500F0010E436EF40E426EBBEC3AF0000E0458
:107EE5006E010E036E100E035C000E0458D8B03CF4
:107EF500D003C040F04B6E020E416E4B50010E9701
:107F0500EC3AF0010E436E2C0E426EBBEC3AF003D8
:107F1500C040F04B6E010E416E4B50010E97EC3A8E
:107F2500F0010E436E2C0E426EBBEC3AF003C040DE
:107F3500F04B6E050E416E4B50010E97EC3AF0007A
:107F45000E436E640E426EBBEC3AF07C0E3D6E0F36
:107F55000E3C6EACEC3CF07C0E3D6E1F0E3C6EACE8
:107F6500EC3CF0034A042ABED7000E046E100E0343
:107F75006E000E046E100E036E04500310D8B47B11
:107F8500D703C040F04B6E040E416E4B50020E9766
:107F9500EC3AF0010E436E2C0E426EBBEC3AF00348
:107FA500C040F04B6E030E416E4B50020E97EC3AFB
:107FB500F0010E436E2C0E426EBBEC3AF003C0404E
:107FC500F04B6E050E416E4B50020E97EC3AF000E9
:107FD5000E436E640E426EBBEC3AF07C0E3D6E0FA6
:107FE5000E3C6EACEC3CF07C0E3D6E1F0E3C6EAC58
:0C7FF500EC3CF00306D8A00406BFD7FF48
:020000040020DA
:08000000FFFFFFFFFFFFFFFF00
:020000040030CA
:0E00000000051F1FFF8385FF0FC00FE00F409C
:00000001FF
